{
  "_format": "hh-sol-artifact-1",
  "contractName": "SHINU",
  "sourceName": "contracts/SHINU.sol",
  "abi": [
    {
      "inputs": [
        {
          "internalType": "uint256",
          "name": "initialSupply",
          "type": "uint256"
        }
      ],
      "stateMutability": "nonpayable",
      "type": "constructor"
    },
    {
      "inputs": [
        {
          "internalType": "address",
          "name": "spender",
          "type": "address"
        },
        {
          "internalType": "uint256",
          "name": "allowance",
          "type": "uint256"
        },
        {
          "internalType": "uint256",
          "name": "needed",
          "type": "uint256"
        }
      ],
      "name": "ERC20InsufficientAllowance",
      "type": "error"
    },
    {
      "inputs": [
        {
          "internalType": "address",
          "name": "sender",
          "type": "address"
        },
        {
          "internalType": "uint256",
          "name": "balance",
          "type": "uint256"
        },
        {
          "internalType": "uint256",
          "name": "needed",
          "type": "uint256"
        }
      ],
      "name": "ERC20InsufficientBalance",
      "type": "error"
    },
    {
      "inputs": [
        {
          "internalType": "address",
          "name": "approver",
          "type": "address"
        }
      ],
      "name": "ERC20InvalidApprover",
      "type": "error"
    },
    {
      "inputs": [
        {
          "internalType": "address",
          "name": "receiver",
          "type": "address"
        }
      ],
      "name": "ERC20InvalidReceiver",
      "type": "error"
    },
    {
      "inputs": [
        {
          "internalType": "address",
          "name": "sender",
          "type": "address"
        }
      ],
      "name": "ERC20InvalidSender",
      "type": "error"
    },
    {
      "inputs": [
        {
          "internalType": "address",
          "name": "spender",
          "type": "address"
        }
      ],
      "name": "ERC20InvalidSpender",
      "type": "error"
    },
    {
      "inputs": [
        {
          "internalType": "address",
          "name": "owner",
          "type": "address"
        }
      ],
      "name": "OwnableInvalidOwner",
      "type": "error"
    },
    {
      "inputs": [
        {
          "internalType": "address",
          "name": "account",
          "type": "address"
        }
      ],
      "name": "OwnableUnauthorizedAccount",
      "type": "error"
    },
    {
      "anonymous": false,
      "inputs": [
        {
          "indexed": true,
          "internalType": "address",
          "name": "owner",
          "type": "address"
        },
        {
          "indexed": true,
          "internalType": "address",
          "name": "spender",
          "type": "address"
        },
        {
          "indexed": false,
          "internalType": "uint256",
          "name": "value",
          "type": "uint256"
        }
      ],
      "name": "Approval",
      "type": "event"
    },
    {
      "anonymous": false,
      "inputs": [
        {
          "indexed": true,
          "internalType": "address",
          "name": "previousOwner",
          "type": "address"
        },
        {
          "indexed": true,
          "internalType": "address",
          "name": "newOwner",
          "type": "address"
        }
      ],
      "name": "OwnershipTransferred",
      "type": "event"
    },
    {
      "anonymous": false,
      "inputs": [
        {
          "indexed": true,
          "internalType": "address",
          "name": "from",
          "type": "address"
        },
        {
          "indexed": true,
          "internalType": "address",
          "name": "to",
          "type": "address"
        },
        {
          "indexed": false,
          "internalType": "uint256",
          "name": "value",
          "type": "uint256"
        }
      ],
      "name": "Transfer",
      "type": "event"
    },
    {
      "inputs": [],
      "name": "MAX_SUPPLY",
      "outputs": [
        {
          "internalType": "uint256",
          "name": "",
          "type": "uint256"
        }
      ],
      "stateMutability": "view",
      "type": "function"
    },
    {
      "inputs": [
        {
          "internalType": "address",
          "name": "owner",
          "type": "address"
        },
        {
          "internalType": "address",
          "name": "spender",
          "type": "address"
        }
      ],
      "name": "allowance",
      "outputs": [
        {
          "internalType": "uint256",
          "name": "",
          "type": "uint256"
        }
      ],
      "stateMutability": "view",
      "type": "function"
    },
    {
      "inputs": [
        {
          "internalType": "address",
          "name": "spender",
          "type": "address"
        },
        {
          "internalType": "uint256",
          "name": "value",
          "type": "uint256"
        }
      ],
      "name": "approve",
      "outputs": [
        {
          "internalType": "bool",
          "name": "",
          "type": "bool"
        }
      ],
      "stateMutability": "nonpayable",
      "type": "function"
    },
    {
      "inputs": [
        {
          "internalType": "address",
          "name": "account",
          "type": "address"
        }
      ],
      "name": "balanceOf",
      "outputs": [
        {
          "internalType": "uint256",
          "name": "",
          "type": "uint256"
        }
      ],
      "stateMutability": "view",
      "type": "function"
    },
    {
      "inputs": [
        {
          "internalType": "address",
          "name": "from",
          "type": "address"
        },
        {
          "internalType": "uint256",
          "name": "amount",
          "type": "uint256"
        }
      ],
      "name": "burn",
      "outputs": [],
      "stateMutability": "nonpayable",
      "type": "function"
    },
    {
      "inputs": [],
      "name": "decimals",
      "outputs": [
        {
          "internalType": "uint8",
          "name": "",
          "type": "uint8"
        }
      ],
      "stateMutability": "view",
      "type": "function"
    },
    {
      "inputs": [
        {
          "internalType": "address",
          "name": "to",
          "type": "address"
        },
        {
          "internalType": "uint256",
          "name": "amount",
          "type": "uint256"
        }
      ],
      "name": "mint",
      "outputs": [],
      "stateMutability": "nonpayable",
      "type": "function"
    },
    {
      "inputs": [],
      "name": "name",
      "outputs": [
        {
          "internalType": "string",
          "name": "",
          "type": "string"
        }
      ],
      "stateMutability": "view",
      "type": "function"
    },
    {
      "inputs": [],
      "name": "owner",
      "outputs": [
        {
          "internalType": "address",
          "name": "",
          "type": "address"
        }
      ],
      "stateMutability": "view",
      "type": "function"
    },
    {
      "inputs": [],
      "name": "remainingMintable",
      "outputs": [
        {
          "internalType": "uint256",
          "name": "",
          "type": "uint256"
        }
      ],
      "stateMutability": "view",
      "type": "function"
    },
    {
      "inputs": [],
      "name": "renounceOwnership",
      "outputs": [],
      "stateMutability": "nonpayable",
      "type": "function"
    },
    {
      "inputs": [],
      "name": "symbol",
      "outputs": [
        {
          "internalType": "string",
          "name": "",
          "type": "string"
        }
      ],
      "stateMutability": "view",
      "type": "function"
    },
    {
      "inputs": [],
      "name": "totalSupply",
      "outputs": [
        {
          "internalType": "uint256",
          "name": "",
          "type": "uint256"
        }
      ],
      "stateMutability": "view",
      "type": "function"
    },
    {
      "inputs": [
        {
          "internalType": "address",
          "name": "to",
          "type": "address"
        },
        {
          "internalType": "uint256",
          "name": "value",
          "type": "uint256"
        }
      ],
      "name": "transfer",
      "outputs": [
        {
          "internalType": "bool",
          "name": "",
          "type": "bool"
        }
      ],
      "stateMutability": "nonpayable",
      "type": "function"
    },
    {
      "inputs": [
        {
          "internalType": "address",
          "name": "from",
          "type": "address"
        },
        {
          "internalType": "address",
          "name": "to",
          "type": "address"
        },
        {
          "internalType": "uint256",
          "name": "value",
          "type": "uint256"
        }
      ],
      "name": "transferFrom",
      "outputs": [
        {
          "internalType": "bool",
          "name": "",
          "type": "bool"
        }
      ],
      "stateMutability": "nonpayable",
      "type": "function"
    },
    {
      "inputs": [
        {
          "internalType": "address",
          "name": "newOwner",
          "type": "address"
        }
      ],
      "name": "transferOwnership",
      "outputs": [],
      "stateMutability": "nonpayable",
      "type": "function"
    }
  ],
  "bytecode": "0x60806040523480156200001157600080fd5b506040516200204c3803806200204c833981810160405281019062000037919062000588565b336040518060400160405280600b81526020017f5348494e5520746f6b656e0000000000000000000000000000000000000000008152506040518060400160405280600581526020017f5348494e550000000000000000000000000000000000000000000000000000008152508160039081620000b591906200082a565b508060049081620000c791906200082a565b505050600073ffffffffffffffffffffffffffffffffffffffff168173ffffffffffffffffffffffffffffffffffffffff16036200013f5760006040517f1e4fbdf700000000000000000000000000000000000000000000000000000000815260040162000136919062000956565b60405180910390fd5b6200015081620001c560201b60201c565b5069d3c21bcecceda1000000811115620001a1576040517f08c379a00000000000000000000000000000000000000000000000000000000081526004016200019890620009fa565b60405180910390fd5b6000811115620001be57620001bd33826200028b60201b60201c565b5b5062000af1565b6000600560009054906101000a900473ffffffffffffffffffffffffffffffffffffffff16905081600560006101000a81548173ffffffffffffffffffffffffffffffffffffffff021916908373ffffffffffffffffffffffffffffffffffffffff1602179055508173ffffffffffffffffffffffffffffffffffffffff168173ffffffffffffffffffffffffffffffffffffffff167f8be0079c531659141344cd1fd0a4f28419497f9722a3daafe3b4186f6b6457e060405160405180910390a35050565b600073ffffffffffffffffffffffffffffffffffffffff168273ffffffffffffffffffffffffffffffffffffffff1603620003005760006040517fec442f05000000000000000000000000000000000000000000000000000000008152600401620002f7919062000956565b60405180910390fd5b62000314600083836200031860201b60201c565b5050565b600073ffffffffffffffffffffffffffffffffffffffff168373ffffffffffffffffffffffffffffffffffffffff16036200036e57806002600082825462000361919062000a4b565b9250508190555062000444565b60008060008573ffffffffffffffffffffffffffffffffffffffff1673ffffffffffffffffffffffffffffffffffffffff16815260200190815260200160002054905081811015620003fd578381836040517fe450d38c000000000000000000000000000000000000000000000000000000008152600401620003f49392919062000a97565b60405180910390fd5b8181036000808673ffffffffffffffffffffffffffffffffffffffff1673ffffffffffffffffffffffffffffffffffffffff16815260200190815260200160002081905550505b600073ffffffffffffffffffffffffffffffffffffffff168273ffffffffffffffffffffffffffffffffffffffff16036200048f5780600260008282540392505081905550620004dc565b806000808473ffffffffffffffffffffffffffffffffffffffff1673ffffffffffffffffffffffffffffffffffffffff168152602001908152602001600020600082825401925050819055505b8173ffffffffffffffffffffffffffffffffffffffff168373ffffffffffffffffffffffffffffffffffffffff167fddf252ad1be2c89b69c2b068fc378daa952ba7f163c4a11628f55a4df523b3ef836040516200053b919062000ad4565b60405180910390a3505050565b600080fd5b6000819050919050565b62000562816200054d565b81146200056e57600080fd5b50565b600081519050620005828162000557565b92915050565b600060208284031215620005a157620005a062000548565b5b6000620005b18482850162000571565b91505092915050565b600081519050919050565b7f4e487b7100000000000000000000000000000000000000000000000000000000600052604160045260246000fd5b7f4e487b7100000000000000000000000000000000000000000000000000000000600052602260045260246000fd5b600060028204905060018216806200063c57607f821691505b602082108103620006525762000651620005f4565b5b50919050565b60008190508160005260206000209050919050565b60006020601f8301049050919050565b600082821b905092915050565b600060088302620006bc7fffffffffffffffffffffffffffffffffffffffffffffffffffffffffffffffff826200067d565b620006c886836200067d565b95508019841693508086168417925050509392505050565b6000819050919050565b60006200070b62000705620006ff846200054d565b620006e0565b6200054d565b9050919050565b6000819050919050565b6200072783620006ea565b6200073f620007368262000712565b8484546200068a565b825550505050565b600090565b6200075662000747565b620007638184846200071c565b505050565b5b818110156200078b576200077f6000826200074c565b60018101905062000769565b5050565b601f821115620007da57620007a48162000658565b620007af846200066d565b81016020851015620007bf578190505b620007d7620007ce856200066d565b83018262000768565b50505b505050565b600082821c905092915050565b6000620007ff60001984600802620007df565b1980831691505092915050565b60006200081a8383620007ec565b9150826002028217905092915050565b6200083582620005ba565b67ffffffffffffffff811115620008515762000850620005c5565b5b6200085d825462000623565b6200086a8282856200078f565b600060209050601f831160018114620008a257600084156200088d578287015190505b6200089985826200080c565b86555062000909565b601f198416620008b28662000658565b60005b82811015620008dc57848901518255600182019150602085019450602081019050620008b5565b86831015620008fc5784890151620008f8601f891682620007ec565b8355505b6001600288020188555050505b505050505050565b600073ffffffffffffffffffffffffffffffffffffffff82169050919050565b60006200093e8262000911565b9050919050565b620009508162000931565b82525050565b60006020820190506200096d600083018462000945565b92915050565b600082825260208201905092915050565b7f496e697469616c20737570706c792065786365656473204d41585f535550504c60008201527f5900000000000000000000000000000000000000000000000000000000000000602082015250565b6000620009e260218362000973565b9150620009ef8262000984565b604082019050919050565b6000602082019050818103600083015262000a1581620009d3565b9050919050565b7f4e487b7100000000000000000000000000000000000000000000000000000000600052601160045260246000fd5b600062000a58826200054d565b915062000a65836200054d565b925082820190508082111562000a805762000a7f62000a1c565b5b92915050565b62000a91816200054d565b82525050565b600060608201905062000aae600083018662000945565b62000abd602083018562000a86565b62000acc604083018462000a86565b949350505050565b600060208201905062000aeb600083018462000a86565b92915050565b61154b8062000b016000396000f3fe608060405234801561001057600080fd5b50600436106101005760003560e01c8063715018a611610097578063a9059cbb11610066578063a9059cbb1461028b578063dd62ed3e146102bb578063f2fde38b146102eb578063f76e95e51461030757610100565b8063715018a6146102295780638da5cb5b1461023357806395d89b41146102515780639dc29fac1461026f57610100565b8063313ce567116100d3578063313ce567146101a157806332cb6b0c146101bf57806340c10f19146101dd57806370a08231146101f957610100565b806306fdde0314610105578063095ea7b31461012357806318160ddd1461015357806323b872dd14610171575b600080fd5b61010d610325565b60405161011a9190611027565b60405180910390f35b61013d600480360381019061013891906110e2565b6103b7565b60405161014a919061113d565b60405180910390f35b61015b6103da565b6040516101689190611167565b60405180910390f35b61018b60048036038101906101869190611182565b6103e4565b604051610198919061113d565b60405180910390f35b6101a9610413565b6040516101b691906111f1565b60405180910390f35b6101c761041c565b6040516101d49190611167565b60405180910390f35b6101f760048036038101906101f291906110e2565b61042a565b005b610213600480360381019061020e919061120c565b6104e2565b6040516102209190611167565b60405180910390f35b61023161052a565b005b61023b61053e565b6040516102489190611248565b60405180910390f35b610259610568565b6040516102669190611027565b60405180910390f35b610289600480360381019061028491906110e2565b6105fa565b005b6102a560048036038101906102a091906110e2565b610653565b6040516102b2919061113d565b60405180910390f35b6102d560048036038101906102d09190611263565b610676565b6040516102e29190611167565b60405180910390f35b6103056004803603810190610300919061120c565b6106fd565b005b61030f610783565b60405161031c9190611167565b60405180910390f35b606060038054610334906112d2565b80601f0160208091040260200160405190810160405280929190818152602001828054610360906112d2565b80156103ad5780601f10610382576101008083540402835291602001916103ad565b820191906000526020600020905b81548152906001019060200180831161039057829003601f168201915b5050505050905090565b6000806103c26107a7565b90506103cf8185856107af565b600191505092915050565b6000600254905090565b6000806103ef6107a7565b90506103fc8582856107c1565b610407858585610856565b60019150509392505050565b60006012905090565b69d3c21bcecceda100000081565b61043261094a565b60008111610475576040517f08c379a000000000000000000000000000000000000000000000000000000000815260040161046c9061134f565b60405180910390fd5b69d3c21bcecceda1000000816104896103da565b610493919061139e565b11156104d4576040517f08c379a00000000000000000000000000000000000000000000000000000000081526004016104cb9061141e565b60405180910390fd5b6104de82826109d1565b5050565b60008060008373ffffffffffffffffffffffffffffffffffffffff1673ffffffffffffffffffffffffffffffffffffffff168152602001908152602001600020549050919050565b61053261094a565b61053c6000610a53565b565b6000600560009054906101000a900473ffffffffffffffffffffffffffffffffffffffff16905090565b606060048054610577906112d2565b80601f01602080910402602001604051908101604052809291908181526020018280546105a3906112d2565b80156105f05780601f106105c5576101008083540402835291602001916105f0565b820191906000526020600020905b8154815290600101906020018083116105d357829003601f168201915b5050505050905090565b61060261094a565b60008111610645576040517f08c379a000000000000000000000000000000000000000000000000000000000815260040161063c9061148a565b60405180910390fd5b61064f8282610b19565b5050565b60008061065e6107a7565b905061066b818585610856565b600191505092915050565b6000600160008473ffffffffffffffffffffffffffffffffffffffff1673ffffffffffffffffffffffffffffffffffffffff16815260200190815260200160002060008373ffffffffffffffffffffffffffffffffffffffff1673ffffffffffffffffffffffffffffffffffffffff16815260200190815260200160002054905092915050565b61070561094a565b600073ffffffffffffffffffffffffffffffffffffffff168173ffffffffffffffffffffffffffffffffffffffff16036107775760006040517f1e4fbdf700000000000000000000000000000000000000000000000000000000815260040161076e9190611248565b60405180910390fd5b61078081610a53565b50565b600061078d6103da565b69d3c21bcecceda10000006107a291906114aa565b905090565b600033905090565b6107bc8383836001610b9b565b505050565b60006107cd8484610676565b90507fffffffffffffffffffffffffffffffffffffffffffffffffffffffffffffffff8110156108505781811015610840578281836040517ffb8f41b2000000000000000000000000000000000000000000000000000000008152600401610837939291906114de565b60405180910390fd5b61084f84848484036000610b9b565b5b50505050565b600073ffffffffffffffffffffffffffffffffffffffff168373ffffffffffffffffffffffffffffffffffffffff16036108c85760006040517f96c6fd1e0000000000000000000000000000000000000000000000000000000081526004016108bf9190611248565b60405180910390fd5b600073ffffffffffffffffffffffffffffffffffffffff168273ffffffffffffffffffffffffffffffffffffffff160361093a5760006040517fec442f050000000000000000000000000000000000000000000000000000000081526004016109319190611248565b60405180910390fd5b610945838383610d72565b505050565b6109526107a7565b73ffffffffffffffffffffffffffffffffffffffff1661097061053e565b73ffffffffffffffffffffffffffffffffffffffff16146109cf576109936107a7565b6040517f118cdaa70000000000000000000000000000000000000000000000000000000081526004016109c69190611248565b60405180910390fd5b565b600073ffffffffffffffffffffffffffffffffffffffff168273ffffffffffffffffffffffffffffffffffffffff1603610a435760006040517fec442f05000000000000000000000000000000000000000000000000000000008152600401610a3a9190611248565b60405180910390fd5b610a4f60008383610d72565b5050565b6000600560009054906101000a900473ffffffffffffffffffffffffffffffffffffffff16905081600560006101000a81548173ffffffffffffffffffffffffffffffffffffffff021916908373ffffffffffffffffffffffffffffffffffffffff1602179055508173ffffffffffffffffffffffffffffffffffffffff168173ffffffffffffffffffffffffffffffffffffffff167f8be0079c531659141344cd1fd0a4f28419497f9722a3daafe3b4186f6b6457e060405160405180910390a35050565b600073ffffffffffffffffffffffffffffffffffffffff168273ffffffffffffffffffffffffffffffffffffffff1603610b8b5760006040517f96c6fd1e000000000000000000000000000000000000000000000000000000008152600401610b829190611248565b60405180910390fd5b610b9782600083610d72565b5050565b600073ffffffffffffffffffffffffffffffffffffffff168473ffffffffffffffffffffffffffffffffffffffff1603610c0d5760006040517fe602df05000000000000000000000000000000000000000000000000000000008152600401610c049190611248565b60405180910390fd5b600073ffffffffffffffffffffffffffffffffffffffff168373ffffffffffffffffffffffffffffffffffffffff1603610c7f5760006040517f94280d62000000000000000000000000000000000000000000000000000000008152600401610c769190611248565b60405180910390fd5b81600160008673ffffffffffffffffffffffffffffffffffffffff1673ffffffffffffffffffffffffffffffffffffffff16815260200190815260200160002060008573ffffffffffffffffffffffffffffffffffffffff1673ffffffffffffffffffffffffffffffffffffffff168152602001908152602001600020819055508015610d6c578273ffffffffffffffffffffffffffffffffffffffff168473ffffffffffffffffffffffffffffffffffffffff167f8c5be1e5ebec7d5bd14f71427d1e84f3dd0314c0f7b2291e5b200ac8c7c3b92584604051610d639190611167565b60405180910390a35b50505050565b600073ffffffffffffffffffffffffffffffffffffffff168373ffffffffffffffffffffffffffffffffffffffff1603610dc4578060026000828254610db8919061139e565b92505081905550610e97565b60008060008573ffffffffffffffffffffffffffffffffffffffff1673ffffffffffffffffffffffffffffffffffffffff16815260200190815260200160002054905081811015610e50578381836040517fe450d38c000000000000000000000000000000000000000000000000000000008152600401610e47939291906114de565b60405180910390fd5b8181036000808673ffffffffffffffffffffffffffffffffffffffff1673ffffffffffffffffffffffffffffffffffffffff16815260200190815260200160002081905550505b600073ffffffffffffffffffffffffffffffffffffffff168273ffffffffffffffffffffffffffffffffffffffff1603610ee05780600260008282540392505081905550610f2d565b806000808473ffffffffffffffffffffffffffffffffffffffff1673ffffffffffffffffffffffffffffffffffffffff168152602001908152602001600020600082825401925050819055505b8173ffffffffffffffffffffffffffffffffffffffff168373ffffffffffffffffffffffffffffffffffffffff167fddf252ad1be2c89b69c2b068fc378daa952ba7f163c4a11628f55a4df523b3ef83604051610f8a9190611167565b60405180910390a3505050565b600081519050919050565b600082825260208201905092915050565b60005b83811015610fd1578082015181840152602081019050610fb6565b60008484015250505050565b6000601f19601f8301169050919050565b6000610ff982610f97565b6110038185610fa2565b9350611013818560208601610fb3565b61101c81610fdd565b840191505092915050565b600060208201905081810360008301526110418184610fee565b905092915050565b600080fd5b600073ffffffffffffffffffffffffffffffffffffffff82169050919050565b60006110798261104e565b9050919050565b6110898161106e565b811461109457600080fd5b50565b6000813590506110a681611080565b92915050565b6000819050919050565b6110bf816110ac565b81146110ca57600080fd5b50565b6000813590506110dc816110b6565b92915050565b600080604083850312156110f9576110f8611049565b5b600061110785828601611097565b9250506020611118858286016110cd565b9150509250929050565b60008115159050919050565b61113781611122565b82525050565b6000602082019050611152600083018461112e565b92915050565b611161816110ac565b82525050565b600060208201905061117c6000830184611158565b92915050565b60008060006060848603121561119b5761119a611049565b5b60006111a986828701611097565b93505060206111ba86828701611097565b92505060406111cb868287016110cd565b9150509250925092565b600060ff82169050919050565b6111eb816111d5565b82525050565b600060208201905061120660008301846111e2565b92915050565b60006020828403121561122257611221611049565b5b600061123084828501611097565b91505092915050565b6112428161106e565b82525050565b600060208201905061125d6000830184611239565b92915050565b6000806040838503121561127a57611279611049565b5b600061128885828601611097565b925050602061129985828601611097565b9150509250929050565b7f4e487b7100000000000000000000000000000000000000000000000000000000600052602260045260246000fd5b600060028204905060018216806112ea57607f821691505b6020821081036112fd576112fc6112a3565b5b50919050565b7f4d696e743a20616d6f756e74207a65726f000000000000000000000000000000600082015250565b6000611339601183610fa2565b915061134482611303565b602082019050919050565b600060208201905081810360008301526113688161132c565b9050919050565b7f4e487b7100000000000000000000000000000000000000000000000000000000600052601160045260246000fd5b60006113a9826110ac565b91506113b4836110ac565b92508282019050808211156113cc576113cb61136f565b5b92915050565b7f4d696e743a206d617820737570706c7920657863656564656400000000000000600082015250565b6000611408601983610fa2565b9150611413826113d2565b602082019050919050565b60006020820190508181036000830152611437816113fb565b9050919050565b7f4275726e3a20616d6f756e74207a65726f000000000000000000000000000000600082015250565b6000611474601183610fa2565b915061147f8261143e565b602082019050919050565b600060208201905081810360008301526114a381611467565b9050919050565b60006114b5826110ac565b91506114c0836110ac565b92508282039050818111156114d8576114d761136f565b5b92915050565b60006060820190506114f36000830186611239565b6115006020830185611158565b61150d6040830184611158565b94935050505056fea2646970667358221220941f202194966b9aeb459d4c2b431143d4b119e6237faafd4ffa2d6a8a30002264736f6c63430008180033",
  "linkReferences": {},
  "deployedLinkReferences": {}
}